{
  "contractName": "Election",
  "abi": [
    {
      "constant": true,
      "inputs": [],
      "name": "candidatesCount",
      "outputs": [
        {
          "name": "",
          "type": "uint256"
        }
      ],
      "payable": false,
      "stateMutability": "view",
      "type": "function",
      "signature": "0x2d35a8a2"
    },
    {
      "constant": true,
      "inputs": [
        {
          "name": "",
          "type": "uint256"
        }
      ],
      "name": "candidates",
      "outputs": [
        {
          "name": "id",
          "type": "uint256"
        },
        {
          "name": "name",
          "type": "string"
        },
        {
          "name": "voteCount",
          "type": "uint256"
        }
      ],
      "payable": false,
      "stateMutability": "view",
      "type": "function",
      "signature": "0x3477ee2e"
    },
    {
      "inputs": [],
      "payable": false,
      "stateMutability": "nonpayable",
      "type": "constructor",
      "signature": "constructor"
    }
  ],
  "bytecode": "0x608060405234801561001057600080fd5b5061005e6040805190810160405280600581526020017f5472756d7000000000000000000000000000000000000000000000000000000081525061014a640100000000026401000000009004565b6100ab6040805190810160405280600581526020017f4f62616d6100000000000000000000000000000000000000000000000000000081525061014a640100000000026401000000009004565b6100f86040805190810160405280600781526020017f486f6c6c616e640000000000000000000000000000000000000000000000000081525061014a640100000000026401000000009004565b6101456040805190810160405280600681526020017f4d6163726f6e000000000000000000000000000000000000000000000000000081525061014a640100000000026401000000009004565b61026b565b6001600081548092919060010191905055506060604051908101604052806001548152602001828152602001600081525060008060015481526020019081526020016000206000820151816000015560208201518160010190805190602001906101b59291906101c6565b506040820151816002015590505050565b828054600181600116156101000203166002900490600052602060002090601f016020900481019282601f1061020757805160ff1916838001178555610235565b82800160010185558215610235579182015b82811115610234578251825591602001919060010190610219565b5b5090506102429190610246565b5090565b61026891905b8082111561026457600081600090555060010161024c565b5090565b90565b6102328061027a6000396000f3fe60806040526004361061004c576000357c0100000000000000000000000000000000000000000000000000000000900463ffffffff1680632d35a8a2146100515780633477ee2e1461007c575b600080fd5b34801561005d57600080fd5b5061006661013e565b6040518082815260200191505060405180910390f35b34801561008857600080fd5b506100b56004803603602081101561009f57600080fd5b8101908080359060200190929190505050610144565b6040518084815260200180602001838152602001828103825284818151815260200191508051906020019080838360005b838110156101015780820151818401526020810190506100e6565b50505050905090810190601f16801561012e5780820380516001836020036101000a031916815260200191505b5094505050505060405180910390f35b60015481565b6000602052806000526040600020600091509050806000015490806001018054600181600116156101000203166002900480601f0160208091040260200160405190810160405280929190818152602001828054600181600116156101000203166002900480156101f65780601f106101cb576101008083540402835291602001916101f6565b820191906000526020600020905b8154815290600101906020018083116101d957829003601f168201915b505050505090806002015490508356fea165627a7a72305820e27f01c4df8d0c408c8af88541a0b2c7b92cbecb4561c715554a4e0f9a9deccd0029",
  "source": "pragma solidity ^0.5.0;\r\n\r\ncontract Election {\r\n\r\n    //Model a candiate\r\n    struct Candidate {\r\n        uint id;\r\n        string name;\r\n        uint voteCount;\r\n    }\r\n\r\n    //Store *\r\n    //Fetch *\r\n    mapping(uint => Candidate) public candidates;\r\n\r\n\r\n    //Store candidate count\r\n    uint public candidatesCount;\r\n\r\n\r\n    constructor() public {\r\n        addCandidate(\"Trump\");\r\n        addCandidate(\"Obama\");\r\n        addCandidate(\"Holland\");\r\n        addCandidate(\"Macron\");\r\n    }\r\n\r\n    function addCandidate(string memory _name) private {\r\n        candidatesCount++;\r\n        candidates[candidatesCount] = Candidate(candidatesCount, _name, 0);\r\n    }\r\n}\r\n",
  "sourcePath": "C:/Users/alex/Desktop/PersonnalProject/DecentralizedApp/VotingApp/contracts/Election.sol",
  "compiler": {
    "name": "solc",
    "version": "0.5.0+commit.1d4f565a.Emscripten.clang"
  },
  "schemaVersion": "3.0.1",
  "updatedAt": "2019-02-06T11:36:49.360Z",
  "devdoc": {
    "methods": {}
  },
  "userdoc": {
    "methods": {}
  }
}